{
  "contractName": "Campaign",
  "abi": [
    {
      "inputs": [
        {
          "internalType": "address[]",
          "name": "_organizers",
          "type": "address[]"
        },
        {
          "internalType": "address[]",
          "name": "_beneficiaries",
          "type": "address[]"
        },
        {
          "internalType": "string",
          "name": "_name",
          "type": "string"
        },
        {
          "internalType": "uint256",
          "name": "_deadline",
          "type": "uint256"
        }
      ],
      "payable": false,
      "stateMutability": "nonpayable",
      "type": "constructor"
    },
    {
      "anonymous": false,
      "inputs": [
        {
          "indexed": false,
          "internalType": "string",
          "name": "campaign",
          "type": "string"
        }
      ],
      "name": "CampaignCreated",
      "type": "event"
    },
    {
      "anonymous": false,
      "inputs": [
        {
          "indexed": false,
          "internalType": "address",
          "name": "beneficiary",
          "type": "address"
        }
      ],
      "name": "DonationWithdrawn",
      "type": "event"
    },
    {
      "anonymous": false,
      "inputs": [
        {
          "indexed": false,
          "internalType": "address",
          "name": "organizator",
          "type": "address"
        }
      ],
      "name": "InitialDonationMade",
      "type": "event"
    },
    {
      "anonymous": false,
      "inputs": [],
      "name": "disabled",
      "type": "event"
    },
    {
      "anonymous": false,
      "inputs": [],
      "name": "expired",
      "type": "event"
    },
    {
      "anonymous": false,
      "inputs": [],
      "name": "launched",
      "type": "event"
    },
    {
      "constant": true,
      "inputs": [
        {
          "internalType": "address",
          "name": "",
          "type": "address"
        }
      ],
      "name": "amountXBeneficiary",
      "outputs": [
        {
          "internalType": "uint256",
          "name": "",
          "type": "uint256"
        }
      ],
      "payable": false,
      "stateMutability": "view",
      "type": "function"
    },
    {
      "constant": true,
      "inputs": [],
      "name": "balance",
      "outputs": [
        {
          "internalType": "uint256",
          "name": "",
          "type": "uint256"
        }
      ],
      "payable": false,
      "stateMutability": "view",
      "type": "function"
    },
    {
      "constant": true,
      "inputs": [
        {
          "internalType": "uint256",
          "name": "",
          "type": "uint256"
        }
      ],
      "name": "beneficiaries",
      "outputs": [
        {
          "internalType": "address",
          "name": "",
          "type": "address"
        }
      ],
      "payable": false,
      "stateMutability": "view",
      "type": "function"
    },
    {
      "constant": true,
      "inputs": [],
      "name": "deadline",
      "outputs": [
        {
          "internalType": "uint256",
          "name": "",
          "type": "uint256"
        }
      ],
      "payable": false,
      "stateMutability": "view",
      "type": "function"
    },
    {
      "constant": true,
      "inputs": [
        {
          "internalType": "address",
          "name": "",
          "type": "address"
        },
        {
          "internalType": "uint256",
          "name": "",
          "type": "uint256"
        }
      ],
      "name": "donations",
      "outputs": [
        {
          "internalType": "uint256",
          "name": "amount",
          "type": "uint256"
        }
      ],
      "payable": false,
      "stateMutability": "view",
      "type": "function"
    },
    {
      "constant": true,
      "inputs": [],
      "name": "initialDonationCount",
      "outputs": [
        {
          "internalType": "uint8",
          "name": "",
          "type": "uint8"
        }
      ],
      "payable": false,
      "stateMutability": "view",
      "type": "function"
    },
    {
      "constant": true,
      "inputs": [],
      "name": "name",
      "outputs": [
        {
          "internalType": "string",
          "name": "",
          "type": "string"
        }
      ],
      "payable": false,
      "stateMutability": "view",
      "type": "function"
    },
    {
      "constant": true,
      "inputs": [
        {
          "internalType": "uint256",
          "name": "",
          "type": "uint256"
        }
      ],
      "name": "organizers",
      "outputs": [
        {
          "internalType": "address",
          "name": "",
          "type": "address"
        }
      ],
      "payable": false,
      "stateMutability": "view",
      "type": "function"
    },
    {
      "constant": true,
      "inputs": [
        {
          "internalType": "address",
          "name": "",
          "type": "address"
        }
      ],
      "name": "organizersXInitialDonation",
      "outputs": [
        {
          "internalType": "uint256",
          "name": "",
          "type": "uint256"
        }
      ],
      "payable": false,
      "stateMutability": "view",
      "type": "function"
    },
    {
      "constant": true,
      "inputs": [],
      "name": "state",
      "outputs": [
        {
          "internalType": "enum Campaign.State",
          "name": "",
          "type": "uint8"
        }
      ],
      "payable": false,
      "stateMutability": "view",
      "type": "function"
    },
    {
      "constant": false,
      "inputs": [],
      "name": "launch",
      "outputs": [],
      "payable": false,
      "stateMutability": "nonpayable",
      "type": "function"
    },
    {
      "constant": false,
      "inputs": [],
      "name": "makeInitialDonation",
      "outputs": [],
      "payable": true,
      "stateMutability": "payable",
      "type": "function"
    },
    {
      "constant": false,
      "inputs": [
        {
          "internalType": "uint8[]",
          "name": "_partitions",
          "type": "uint8[]"
        }
      ],
      "name": "makeDonation",
      "outputs": [],
      "payable": true,
      "stateMutability": "payable",
      "type": "function"
    },
    {
      "constant": false,
      "inputs": [],
      "name": "withdraw",
      "outputs": [],
      "payable": false,
      "stateMutability": "nonpayable",
      "type": "function"
    },
    {
      "constant": true,
      "inputs": [],
      "name": "getOrganizers",
      "outputs": [
        {
          "internalType": "address[]",
          "name": "result",
          "type": "address[]"
        }
      ],
      "payable": false,
      "stateMutability": "view",
      "type": "function"
    },
    {
      "constant": true,
      "inputs": [],
      "name": "getBeneficiaries",
      "outputs": [
        {
          "internalType": "address[]",
          "name": "result",
          "type": "address[]"
        }
      ],
      "payable": false,
      "stateMutability": "view",
      "type": "function"
    },
    {
      "constant": false,
      "inputs": [],
      "name": "closeCampaign",
      "outputs": [],
      "payable": false,
      "stateMutability": "nonpayable",
      "type": "function"
    }
  ],
  "bytecode": "0x60806040523480156200001157600080fd5b506040516200297b3803806200297b833981810160405260808110156200003757600080fd5b81019080805160405193929190846401000000008211156200005857600080fd5b838201915060208201858111156200006f57600080fd5b82518660208202830111640100000000821117156200008d57600080fd5b8083526020830192505050908051906020019060200280838360005b83811015620000c6578082015181840152602081019050620000a9565b5050505090500160405260200180516040519392919084640100000000821115620000f057600080fd5b838201915060208201858111156200010757600080fd5b82518660208202830111640100000000821117156200012557600080fd5b8083526020830192505050908051906020019060200280838360005b838110156200015e57808201518184015260208101905062000141565b50505050905001604052602001805160405193929190846401000000008211156200018857600080fd5b838201915060208201858111156200019f57600080fd5b8251866001820283011164010000000082111715620001bd57600080fd5b8083526020830192505050908051906020019080838360005b83811015620001f3578082015181840152602081019050620001d6565b50505050905090810190601f168015620002215780820380516001836020036101000a031916815260200191505b5060405260200180519060200190929190505050600184511015620002ae576040517f08c379a00000000000000000000000000000000000000000000000000000000081526004018080602001828103825260208152602001807f4f7267616e697a657273206d757374206265206174206c65617374206f6e652181525060200191505060405180910390fd5b6001835110156200030b576040517f08c379a0000000000000000000000000000000000000000000000000000000008152600401808060200182810382526023815260200180620029586023913960400191505060405180910390fd5b83600090805190602001906200032392919062000449565b5082600290805190602001906200033c92919062000449565b50816001908051906020019062000355929190620004d8565b508060068190555060006007819055506000600460006101000a81548160ff021916908360ff1602179055507f47114a22588e53404a6e9e8510faa484d40bbfba13663d25fe323ddd9ab334ea60016040518080602001828103825283818154600181600116156101000203166002900481526020019150805460018160011615610100020316600290048015620004315780601f10620004055761010080835404028352916020019162000431565b820191906000526020600020905b8154815290600101906020018083116200041357829003601f168201915b50509250505060405180910390a150505050620005cd565b828054828255906000526020600020908101928215620004c5579160200282015b82811115620004c45782518260006101000a81548173ffffffffffffffffffffffffffffffffffffffff021916908373ffffffffffffffffffffffffffffffffffffffff160217905550916020019190600101906200046a565b5b509050620004d491906200055f565b5090565b828054600181600116156101000203166002900490600052602060002090601f016020900481019282601f106200051b57805160ff19168380011785556200054c565b828001600101855582156200054c579182015b828111156200054b5782518255916020019190600101906200052e565b5b5090506200055b9190620005a5565b5090565b620005a291905b808211156200059e57600081816101000a81549073ffffffffffffffffffffffffffffffffffffffff02191690555060010162000566565b5090565b90565b620005ca91905b80821115620005c6576000816000905550600101620005ac565b5090565b90565b61237b80620005dd6000396000f3fe6080604052600436106100fe5760003560e01c806395086ed111610095578063b69ef8a811610064578063b69ef8a814610561578063c19d93fb1461058c578063d7557f18146105c5578063e250894d146105dc578063efeb5e58146105e6576100fe565b806395086ed11461038e578063a4c8be1e146103fd578063a722a3d414610478578063acd6e90014610530576100fe565b806329dcb0cf116100d157806329dcb0cf1461027b5780633ccfd60b146102a6578063704476f5146102bd578063913b722c14610322576100fe565b806301339c211461010357806306fdde031461011a5780630ed5d25e146101aa578063187f973914610216575b600080fd5b34801561010f57600080fd5b50610118610661565b005b34801561012657600080fd5b5061012f610a36565b6040518080602001828103825283818151815260200191508051906020019080838360005b8381101561016f578082015181840152602081019050610154565b50505050905090810190601f16801561019c5780820380516001836020036101000a031916815260200191505b509250505060405180910390f35b3480156101b657600080fd5b506101bf610ad4565b6040518080602001828103825283818151815260200191508051906020019060200280838360005b838110156102025780820151818401526020810190506101e7565b505050509050019250505060405180910390f35b34801561022257600080fd5b506102656004803603602081101561023957600080fd5b81019080803573ffffffffffffffffffffffffffffffffffffffff169060200190929190505050610b62565b6040518082815260200191505060405180910390f35b34801561028757600080fd5b50610290610b7a565b6040518082815260200191505060405180910390f35b3480156102b257600080fd5b506102bb610b80565b005b3480156102c957600080fd5b5061030c600480360360208110156102e057600080fd5b81019080803573ffffffffffffffffffffffffffffffffffffffff16906020019092919050505061106b565b6040518082815260200191505060405180910390f35b34801561032e57600080fd5b50610337611083565b6040518080602001828103825283818151815260200191508051906020019060200280838360005b8381101561037a57808201518184015260208101905061035f565b505050509050019250505060405180910390f35b34801561039a57600080fd5b506103e7600480360360408110156103b157600080fd5b81019080803573ffffffffffffffffffffffffffffffffffffffff16906020019092919080359060200190929190505050611111565b6040518082815260200191505060405180910390f35b34801561040957600080fd5b506104366004803603602081101561042057600080fd5b8101908080359060200190929190505050611149565b604051808273ffffffffffffffffffffffffffffffffffffffff1673ffffffffffffffffffffffffffffffffffffffff16815260200191505060405180910390f35b61052e6004803603602081101561048e57600080fd5b81019080803590602001906401000000008111156104ab57600080fd5b8201836020820111156104bd57600080fd5b803590602001918460208302840111640100000000831117156104df57600080fd5b919080806020026020016040519081016040528093929190818152602001838360200280828437600081840152601f19601f820116905080830192505050505050509192919290505050611185565b005b34801561053c57600080fd5b5061054561170e565b604051808260ff1660ff16815260200191505060405180910390f35b34801561056d57600080fd5b50610576611721565b6040518082815260200191505060405180910390f35b34801561059857600080fd5b506105a1611727565b604051808260038111156105b157fe5b60ff16815260200191505060405180910390f35b3480156105d157600080fd5b506105da61173a565b005b6105e4611acc565b005b3480156105f257600080fd5b5061061f6004803603602081101561060957600080fd5b8101908080359060200190929190505050611ffb565b604051808273ffffffffffffffffffffffffffffffffffffffff1673ffffffffffffffffffffffffffffffffffffffff16815260200191505060405180910390f35b6001600381111561066e57fe5b600960009054906101000a900460ff16600381111561068957fe5b14156106e0576040517f08c379a00000000000000000000000000000000000000000000000000000000081526004018080602001828103825260268152602001806123216026913960400191505060405180910390fd5b600260038111156106ed57fe5b600960009054906101000a900460ff16600381111561070857fe5b141561075f576040517f08c379a00000000000000000000000000000000000000000000000000000000081526004018080602001828103825260268152602001806122636026913960400191505060405180910390fd5b60038081111561076b57fe5b600960009054906101000a900460ff16600381111561078657fe5b14156107fa576040517f08c379a000000000000000000000000000000000000000000000000000000000815260040180806020018281038252601a8152602001807f546869732069732064697361626c65642063616d706169676e2100000000000081525060200191505060405180910390fd5b6006544211156108a5576002600960006101000a81548160ff0219169083600381111561082357fe5b02179055507f4c2067c73ef83f6294bcea83b4ec57bdee89d23b121c536e7644d58656fb02ed60405160405180910390a16040517f08c379a00000000000000000000000000000000000000000000000000000000081526004018080602001828103825260218152602001806121e16021913960400191505060405180910390fd5b33600080905060008090505b6000805490508160ff1610156109415760008160ff16815481106108d157fe5b9060005260206000200160009054906101000a900473ffffffffffffffffffffffffffffffffffffffff1673ffffffffffffffffffffffffffffffffffffffff168373ffffffffffffffffffffffffffffffffffffffff16141561093457600191505b80806001019150506108b1565b50600115158115151461099f576040517f08c379a000000000000000000000000000000000000000000000000000000000815260040180806020018281038252602e815260200180612140602e913960400191505060405180910390fd5b600080549050600460009054906101000a900460ff1660ff1614610a0e576040517f08c379a000000000000000000000000000000000000000000000000000000000815260040180806020018281038252604f815260200180612289604f913960600191505060405180910390fd5b6001600960006101000a81548160ff02191690836003811115610a2d57fe5b02179055505050565b60018054600181600116156101000203166002900480601f016020809104026020016040519081016040528092919081815260200182805460018160011615610100020316600290048015610acc5780601f10610aa157610100808354040283529160200191610acc565b820191906000526020600020905b815481529060010190602001808311610aaf57829003601f168201915b505050505081565b60606000805480602002602001604051908101604052809291908181526020018280548015610b5857602002820191906000526020600020905b8160009054906101000a900473ffffffffffffffffffffffffffffffffffffffff1673ffffffffffffffffffffffffffffffffffffffff1681526020019060010190808311610b0e575b5050505050905090565b60056020528060005260406000206000915090505481565b60065481565b60006003811115610b8d57fe5b600960009054906101000a900460ff166003811115610ba857fe5b1415610bff576040517f08c379a00000000000000000000000000000000000000000000000000000000081526004018080602001828103825260288152602001806122d86028913960400191505060405180910390fd5b60016003811115610c0c57fe5b600960009054906101000a900460ff166003811115610c2757fe5b1415610c9b576040517f08c379a000000000000000000000000000000000000000000000000000000000815260040180806020018281038252601e8152602001807f546869732063616d706169676e206973207374696c6c2061637469766521000081525060200191505060405180910390fd5b600380811115610ca757fe5b600960009054906101000a900460ff166003811115610cc257fe5b1415610d36576040517f08c379a000000000000000000000000000000000000000000000000000000000815260040180806020018281038252601a8152602001807f546869732069732064697361626c65642063616d706169676e2100000000000081525060200191505060405180910390fd5b600654421115610d91576002600960006101000a81548160ff02191690836003811115610d5f57fe5b02179055507f4c2067c73ef83f6294bcea83b4ec57bdee89d23b121c536e7644d58656fb02ed60405160405180910390a15b33600080905060008090505b6002805490508160ff161015610e2d5760028160ff1681548110610dbd57fe5b9060005260206000200160009054906101000a900473ffffffffffffffffffffffffffffffffffffffff1673ffffffffffffffffffffffffffffffffffffffff168373ffffffffffffffffffffffffffffffffffffffff161415610e2057600191505b8080600101915050610d9d565b506001151581151514610e8b576040517f08c379a000000000000000000000000000000000000000000000000000000000815260040180806020018281038252603181526020018061210f6031913960400191505060405180910390fd5b6000600560003373ffffffffffffffffffffffffffffffffffffffff1673ffffffffffffffffffffffffffffffffffffffff168152602001908152602001600020549050600060028054905060075481610ee157fe5b049050806007600082825403925050819055506000600560003373ffffffffffffffffffffffffffffffffffffffff1673ffffffffffffffffffffffffffffffffffffffff1681526020019081526020016000208190555060003373ffffffffffffffffffffffffffffffffffffffff1682840160405180600001905060006040518083038185875af1925050503d8060008114610f9b576040519150601f19603f3d011682016040523d82523d6000602084013e610fa0565b606091505b505090506001151581151514611001576040517f08c379a00000000000000000000000000000000000000000000000000000000081526004018080602001828103825260268152602001806121bb6026913960400191505060405180910390fd5b7fbfe64a9d7bc870b06df206ea0a273a82692a7d9b4d9063679a9cb6ec11b75b8833604051808273ffffffffffffffffffffffffffffffffffffffff1673ffffffffffffffffffffffffffffffffffffffff16815260200191505060405180910390a15050505050565b60036020528060005260406000206000915090505481565b6060600280548060200260200160405190810160405280929190818152602001828054801561110757602002820191906000526020600020905b8160009054906101000a900473ffffffffffffffffffffffffffffffffffffffff1673ffffffffffffffffffffffffffffffffffffffff16815260200190600101908083116110bd575b5050505050905090565b6008602052816000526040600020818154811061112a57fe5b9060005260206000209060020201600091509150508060000154905081565b6000818154811061115657fe5b906000526020600020016000915054906101000a900473ffffffffffffffffffffffffffffffffffffffff1681565b6000600381111561119257fe5b600960009054906101000a900460ff1660038111156111ad57fe5b1415611204576040517f08c379a00000000000000000000000000000000000000000000000000000000081526004018080602001828103825260288152602001806122d86028913960400191505060405180910390fd5b6002600381111561121157fe5b600960009054906101000a900460ff16600381111561122c57fe5b1415611283576040517f08c379a00000000000000000000000000000000000000000000000000000000081526004018080602001828103825260218152602001806121e16021913960400191505060405180910390fd5b60038081111561128f57fe5b600960009054906101000a900460ff1660038111156112aa57fe5b141561131e576040517f08c379a000000000000000000000000000000000000000000000000000000000815260040180806020018281038252601a8152602001807f546869732069732064697361626c65642063616d706169676e2100000000000081525060200191505060405180910390fd5b6006544211156113c9576002600960006101000a81548160ff0219169083600381111561134757fe5b02179055507f4c2067c73ef83f6294bcea83b4ec57bdee89d23b121c536e7644d58656fb02ed60405160405180910390a16040517f08c379a00000000000000000000000000000000000000000000000000000000081526004018080602001828103825260218152602001806121e16021913960400191505060405180910390fd5b80600080905060008090505b82518160ff16101561140957828160ff16815181106113f057fe5b60200260200101518201915080806001019150506113d5565b5060648160ff1614611466576040517f08c379a00000000000000000000000000000000000000000000000000000000081526004018080602001828103825260218152602001806123006021913960400191505060405180910390fd5b600034116114bf576040517f08c379a00000000000000000000000000000000000000000000000000000000081526004018080602001828103825260228152602001806121996022913960400191505060405180910390fd5b60028054905083511461151d576040517f08c379a00000000000000000000000000000000000000000000000000000000081526004018080602001828103825260358152602001806122026035913960400191505060405180910390fd5b60008090505b6002805490508160ff1610156115ec576064848260ff168151811061154457fe5b602002602001015160ff1634028161155857fe5b046005600060028460ff168154811061156d57fe5b9060005260206000200160009054906101000a900473ffffffffffffffffffffffffffffffffffffffff1673ffffffffffffffffffffffffffffffffffffffff1673ffffffffffffffffffffffffffffffffffffffff168152602001908152602001600020600082825401925050819055508080600101915050611523565b5034600760008282540192505081905550600860003373ffffffffffffffffffffffffffffffffffffffff1673ffffffffffffffffffffffffffffffffffffffff168152602001908152602001600020604051806040016040528034815260200185815250908060018154018082558091505090600182039060005260206000209060020201600090919290919091506000820151816000015560208201518160010190805190602001906116a2929190612037565b505050507fbfdd49b3dabac908a2cac2c5a2e6746da3416d87bf0e95e7b3f9a3d56070e29133604051808273ffffffffffffffffffffffffffffffffffffffff1673ffffffffffffffffffffffffffffffffffffffff16815260200191505060405180910390a1505050565b600460009054906101000a900460ff1681565b60075481565b600960009054906101000a900460ff1681565b6000600381111561174757fe5b600960009054906101000a900460ff16600381111561176257fe5b14156117b9576040517f08c379a00000000000000000000000000000000000000000000000000000000081526004018080602001828103825260288152602001806122d86028913960400191505060405180910390fd5b600260038111156117c657fe5b600960009054906101000a900460ff1660038111156117e157fe5b1415611838576040517f08c379a00000000000000000000000000000000000000000000000000000000081526004018080602001828103825260218152602001806121e16021913960400191505060405180910390fd5b60038081111561184457fe5b600960009054906101000a900460ff16600381111561185f57fe5b14156118d3576040517f08c379a000000000000000000000000000000000000000000000000000000000815260040180806020018281038252601a8152602001807f546869732069732064697361626c65642063616d706169676e2100000000000081525060200191505060405180910390fd5b60065442111561197e576002600960006101000a81548160ff021916908360038111156118fc57fe5b02179055507f4c2067c73ef83f6294bcea83b4ec57bdee89d23b121c536e7644d58656fb02ed60405160405180910390a16040517f08c379a00000000000000000000000000000000000000000000000000000000081526004018080602001828103825260218152602001806121e16021913960400191505060405180910390fd5b33600080905060008090505b6000805490508160ff161015611a1a5760008160ff16815481106119aa57fe5b9060005260206000200160009054906101000a900473ffffffffffffffffffffffffffffffffffffffff1673ffffffffffffffffffffffffffffffffffffffff168373ffffffffffffffffffffffffffffffffffffffff161415611a0d57600191505b808060010191505061198a565b506001151581151514611a78576040517f08c379a000000000000000000000000000000000000000000000000000000000815260040180806020018281038252602e815260200180612140602e913960400191505060405180910390fd5b6002600960006101000a81548160ff02191690836003811115611a9757fe5b02179055507f4c2067c73ef83f6294bcea83b4ec57bdee89d23b121c536e7644d58656fb02ed60405160405180910390a15050565b33600080905060008090505b6000805490508160ff161015611b685760008160ff1681548110611af857fe5b9060005260206000200160009054906101000a900473ffffffffffffffffffffffffffffffffffffffff1673ffffffffffffffffffffffffffffffffffffffff168373ffffffffffffffffffffffffffffffffffffffff161415611b5b57600191505b8080600101915050611ad8565b506001151581151514611bc6576040517f08c379a000000000000000000000000000000000000000000000000000000000815260040180806020018281038252602e815260200180612140602e913960400191505060405180910390fd5b60016003811115611bd357fe5b600960009054906101000a900460ff166003811115611bee57fe5b1415611c45576040517f08c379a00000000000000000000000000000000000000000000000000000000081526004018080602001828103825260268152602001806123216026913960400191505060405180910390fd5b60026003811115611c5257fe5b600960009054906101000a900460ff166003811115611c6d57fe5b1415611cc4576040517f08c379a00000000000000000000000000000000000000000000000000000000081526004018080602001828103825260268152602001806122636026913960400191505060405180910390fd5b600380811115611cd057fe5b600960009054906101000a900460ff166003811115611ceb57fe5b1415611d5f576040517f08c379a000000000000000000000000000000000000000000000000000000000815260040180806020018281038252601a8152602001807f546869732069732064697361626c65642063616d706169676e2100000000000081525060200191505060405180910390fd5b600654421115611e0a576002600960006101000a81548160ff02191690836003811115611d8857fe5b02179055507f4c2067c73ef83f6294bcea83b4ec57bdee89d23b121c536e7644d58656fb02ed60405160405180910390a16040517f08c379a00000000000000000000000000000000000000000000000000000000081526004018080602001828103825260218152602001806121e16021913960400191505060405180910390fd5b60003411611e63576040517f08c379a000000000000000000000000000000000000000000000000000000000815260040180806020018281038252602c815260200180612237602c913960400191505060405180910390fd5b6000600360003373ffffffffffffffffffffffffffffffffffffffff1673ffffffffffffffffffffffffffffffffffffffff168152602001908152602001600020541415611f265734600360003373ffffffffffffffffffffffffffffffffffffffff1673ffffffffffffffffffffffffffffffffffffffff168152602001908152602001600020819055506004600081819054906101000a900460ff168092919060010191906101000a81548160ff021916908360ff16021790555050611f77565b6040517f08c379a000000000000000000000000000000000000000000000000000000000815260040180806020018281038252602b81526020018061216e602b913960400191505060405180910390fd5b34600760008282540192505081905550600080549050600460009054906101000a900460ff1660ff161415611ff7576001600960006101000a81548160ff02191690836003811115611fc557fe5b02179055507f8091f3bf0000483f0b9b7eea79ef31bb28a3a2a0594d239cb2acfd4ccf4c31ac60405160405180910390a15b5050565b6002818154811061200857fe5b906000526020600020016000915054906101000a900473ffffffffffffffffffffffffffffffffffffffff1681565b82805482825590600052602060002090601f016020900481019282156120cd5791602002820160005b8382111561209e57835183826101000a81548160ff021916908360ff1602179055509260200192600101602081600001049283019260010302612060565b80156120cb5782816101000a81549060ff021916905560010160208160000104928301926001030261209e565b505b5090506120da91906120de565b5090565b61210b91905b8082111561210757600081816101000a81549060ff0219169055506001016120e4565b5090565b9056fe4f6e6c792062656e656669636961726965732063616e2061636365737320746869732066756e6374696f6e616c697479214f6e6c79206f7267616e697a6572732063616e2061636365737320746869732066756e6374696f6e616c6974792154686520696e697469616c20646f6e6174696f6e2063616e206265206d616465206f6e6c79206f6e63652154686520646f6e6174656420616d6f756e742063616e6e6f74206265206e756c6c214572726f72207768696c65207769746864726177696e672074686520646f6e6174696f6e7321546869732063616d706169676e20697320616c7265616479206578706972656421596f75206861766520746f2073706563696679206120706172746974696f6e20666f7220656163682062656e65666963696172792154686520696e697469616c20646f6e6174696f6e206d7573742062652067726561746572207468616e203021596f752063616e6e6f74206d6f6469667920616e20657870697265642063616d706169676e2143616e6e6f74206c61756e6368207468652063616d706169676e206265666f726520616c6c206f7267616e697a65722068617665206d6164652074686520696e697469616c20646f6e6174696f6e21546869732063616d706169676e20686173206e6f74206265656e206c61756e6368656420796574215468652073756d206f6620706172746974696f6e73206973206e6f742031303025596f752063616e6e6f74206d6f646966792061206c61756e636865642063616d706169676e21a265627a7a7231582099d9831f2a5b6440346a5f4d43448a3c71bb99ff62b124ad6adba328a4d2d5d564736f6c6343000510003242656e65666963696172696573206d757374206265206174206c65617374206f6e6521",
  "source": "pragma solidity >=0.5.6 <0.7.0;\n\ncontract Campaign {\n\n    //events\n    event CampaignCreated(string campaign);\n    event launched();\n    event expired();\n    event disabled();\n    event DonationWithdrawn(address beneficiary);\n    event InitialDonationMade(address organizator);\n\n\n    //fields\n    address[] public organizers;\n    string public name;\n    address[] public beneficiaries;\n    mapping (address => uint256) public organizersXInitialDonation;\n    uint8 public initialDonationCount;\n    mapping (address => uint256) public amountXBeneficiary;\n    uint256 public deadline;\n    uint public balance;\n    struct Donation{\n        uint256 amount;\n        uint8[] partitions;\n    }\n    mapping (address => Donation[]) public donations;\n\n    enum State {WIP, LAUNCHED, EXPIRED, DISABLED}\n\n    State public state;\n\n\n    constructor (address[] memory _organizers, address[] memory _beneficiaries, string memory _name, uint256 _deadline) public {\n\n        require(_organizers.length >= 1, \"Organizers must be at least one!\");\n        require(_beneficiaries.length >= 1, \"Beneficiaries must be at least one!\");\n\n        organizers=_organizers;\n        beneficiaries=_beneficiaries;\n        name= _name;\n        deadline = _deadline;\n        balance = 0;\n        initialDonationCount=0;\n\n        emit CampaignCreated(name);\n    }\n\n\n    modifier onlyOrganizers(address _organizer){\n        bool isOrganizer = false;\n        for(uint8 i=0; i<organizers.length; i++){\n            if(_organizer == organizers[i]){\n                isOrganizer = true;\n            }\n        }\n        require(isOrganizer == true, \"Only organizers can access this functionality!\");\n        _;\n    }\n    modifier checkBeneficiary(address _beneficiary){\n        bool isBeneficiary = false;\n        for(uint8 i=0; i<beneficiaries.length; i++){\n            if(_beneficiary == beneficiaries[i]){\n                isBeneficiary = true;\n            }\n        }\n        require(isBeneficiary == true, \"Only beneficiaries can access this functionality!\");\n        _;\n    }\n    modifier onlyWIP(){\n        if(state == State.LAUNCHED){\n            revert(\"You cannot modify a launched campaign!\");\n        }else if(state == State.EXPIRED){\n            revert(\"You cannot modify an expired campaign!\");\n        }else if(state == State.DISABLED){\n            revert(\"This is disabled campaign!\");\n        }else if(block.timestamp > deadline){\n            state = State.EXPIRED;\n\n            emit expired();\n\n            revert(\"This campaign is already expired!\");\n        }\n        _;\n    }\n    modifier onlyLAUNCHED(){\n        if(state == State.WIP){\n            revert(\"This campaign has not been launched yet!\");\n        }else if(state == State.EXPIRED){\n            revert(\"This campaign is already expired!\");\n        }else if(state == State.DISABLED){\n            revert(\"This is disabled campaign!\");\n        }else if(block.timestamp > deadline){\n            state = State.EXPIRED;\n\n            emit expired();\n\n            revert(\"This campaign is already expired!\");\n        }\n        _;\n    }\n    modifier onlyEXPIRED(){\n        if(state == State.WIP){\n            revert(\"This campaign has not been launched yet!\");\n        }else if(state == State.LAUNCHED){\n            revert(\"This campaign is still active!\");\n        }else if(state == State.DISABLED){\n            revert(\"This is disabled campaign!\");\n        }else if(block.timestamp > deadline){\n            state = State.EXPIRED;\n\n            emit expired();\n\n        }\n        _;\n    }\n    modifier checkPartitions(uint8[] memory _partitions){\n        uint8 total = 0;\n        for(uint8 i=0; i<_partitions.length; i++){\n            total += _partitions[i];\n        }\n\n        require(total == 100, \"The sum of partitions is not 100%\");\n\n        _;\n    }\n\n\n    function launch() onlyWIP() public onlyOrganizers(msg.sender){\n\n        require(initialDonationCount == organizers.length, \"Cannot launch the campaign before all organizer have made the initial donation!\");\n        state = State.LAUNCHED;\n    }\n\n    function makeInitialDonation() public onlyOrganizers(msg.sender) onlyWIP() payable {\n        require(msg.value > 0 , \"The initial donation must be greater than 0!\");\n\n        if(organizersXInitialDonation[msg.sender] == 0){\n            organizersXInitialDonation[msg.sender] = msg.value;\n            initialDonationCount ++;\n        }else{\n            revert(\"The initial donation can be made only once!\");\n        }\n\n        balance += msg.value;\n\n        if(initialDonationCount == organizers.length){\n            state = State.LAUNCHED;\n\n            emit launched();\n        }\n\n    }\n\n    function makeDonation(uint8[] memory _partitions) public onlyLAUNCHED() checkPartitions(_partitions) payable {\n\n        require(msg.value > 0, \"The donated amount cannot be null!\");\n        require(_partitions.length == beneficiaries.length, \"You have to specify a partition for each beneficiary!\");\n\n        for(uint8 i=0; i<beneficiaries.length; i++){\n            amountXBeneficiary[beneficiaries[i]] += msg.value*_partitions[i]/100;\n        }\n        balance += msg.value;\n\n        donations[msg.sender].push(Donation(msg.value, _partitions));\n\n        emit InitialDonationMade(msg.sender);\n    }\n\n    function withdraw() public onlyEXPIRED() checkBeneficiary(msg.sender) {\n\n        uint256 amount = amountXBeneficiary[msg.sender];\n        uint commonAmount = balance/beneficiaries.length;\n        balance -= commonAmount;\n        amountXBeneficiary[msg.sender] = 0;\n\n        (bool success, ) = msg.sender.call.value(amount + commonAmount)(\"\");\n        require(success == true, \"Error while withdrawing the donations!\");\n\n        emit DonationWithdrawn(msg.sender);\n    }\n\n    function getOrganizers() public view returns( address[] memory result){\n        return organizers;\n    }\n    function getBeneficiaries() public view returns( address[] memory result){\n        return beneficiaries;\n    }\n\n    function closeCampaign() public  onlyLAUNCHED() onlyOrganizers(msg.sender){\n        state = State.EXPIRED;\n\n        emit expired();\n    }\n\n}",
  "sourcePath": "/Users/gianmarcosanti/Library/Mobile Documents/com~apple~CloudDocs/UNIPI/P2PBC/FinalProject/BitCollect/contracts/Campaign.sol",
  "compiler": {
    "name": "solc",
    "version": "0.5.16+commit.9c3226ce.Emscripten.clang"
  },
  "schemaVersion": "3.2.0",
  "updatedAt": "2020-06-09T17:12:46.774Z",
  "devdoc": {
    "methods": {}
  },
  "userdoc": {
    "methods": {}
  }
}