{
  "contractName": "CampaignFactory",
  "abi": [
    {
      "inputs": [],
      "stateMutability": "nonpayable",
      "type": "constructor"
    },
    {
      "inputs": [
        {
          "internalType": "uint256",
          "name": "",
          "type": "uint256"
        }
      ],
      "name": "instances",
      "outputs": [
        {
          "internalType": "contract Campaign",
          "name": "",
          "type": "address"
        }
      ],
      "stateMutability": "view",
      "type": "function",
      "constant": true
    },
    {
      "inputs": [],
      "name": "nextIndex",
      "outputs": [
        {
          "internalType": "uint256",
          "name": "",
          "type": "uint256"
        }
      ],
      "stateMutability": "view",
      "type": "function",
      "constant": true
    },
    {
      "inputs": [
        {
          "internalType": "address[]",
          "name": "_organizers",
          "type": "address[]"
        },
        {
          "internalType": "address[]",
          "name": "_beneficiaries",
          "type": "address[]"
        },
        {
          "internalType": "string",
          "name": "_name",
          "type": "string"
        },
        {
          "internalType": "uint256[]",
          "name": "_deadlines",
          "type": "uint256[]"
        },
        {
          "internalType": "uint256[]",
          "name": "_milestones",
          "type": "uint256[]"
        },
        {
          "internalType": "contract ThirdPartyContract",
          "name": "_tpContractAddress",
          "type": "address"
        }
      ],
      "name": "create",
      "outputs": [],
      "stateMutability": "nonpayable",
      "type": "function"
    },
    {
      "inputs": [],
      "name": "getDeployedCampaigns",
      "outputs": [
        {
          "internalType": "contract Campaign[]",
          "name": "",
          "type": "address[]"
        }
      ],
      "stateMutability": "view",
      "type": "function",
      "constant": true
    }
  ],
  "bytecode": "0x608060405234801561001057600080fd5b5060008081905550615454806100276000396000f3fe60806040523480156200001157600080fd5b5060043610620000525760003560e01c80634acb9d4f1462000057578063a2f7b3a514620000ba578063b679907a146200012b578063fc7e9c6f1462000468575b600080fd5b6200006162000488565b6040518080602001828103825283818151815260200191508051906020019060200280838360005b83811015620000a657808201518184015260208101905062000089565b505050509050019250505060405180910390f35b620000e960048036036020811015620000d257600080fd5b810190808035906020019092919050505062000518565b604051808273ffffffffffffffffffffffffffffffffffffffff1673ffffffffffffffffffffffffffffffffffffffff16815260200191505060405180910390f35b62000466600480360360c08110156200014357600080fd5b81019080803590602001906401000000008111156200016157600080fd5b8201836020820111156200017457600080fd5b803590602001918460208302840111640100000000831117156200019757600080fd5b919080806020026020016040519081016040528093929190818152602001838360200280828437600081840152601f19601f82011690508083019250505050505050919291929080359060200190640100000000811115620001f857600080fd5b8201836020820111156200020b57600080fd5b803590602001918460208302840111640100000000831117156200022e57600080fd5b919080806020026020016040519081016040528093929190818152602001838360200280828437600081840152601f19601f820116905080830192505050505050509192919290803590602001906401000000008111156200028f57600080fd5b820183602082011115620002a257600080fd5b80359060200191846001830284011164010000000083111715620002c557600080fd5b91908080601f016020809104026020016040519081016040528093929190818152602001838380828437600081840152601f19601f820116905080830192505050505050509192919290803590602001906401000000008111156200032957600080fd5b8201836020820111156200033c57600080fd5b803590602001918460208302840111640100000000831117156200035f57600080fd5b919080806020026020016040519081016040528093929190818152602001838360200280828437600081840152601f19601f82011690508083019250505050505050919291929080359060200190640100000000811115620003c057600080fd5b820183602082011115620003d357600080fd5b80359060200191846020830284011164010000000083111715620003f657600080fd5b919080806020026020016040519081016040528093929190818152602001838360200280828437600081840152601f19601f820116905080830192505050505050509192919290803573ffffffffffffffffffffffffffffffffffffffff16906020019092919050505062000555565b005b620004726200081b565b6040518082815260200191505060405180910390f35b606060028054806020026020016040519081016040528092919081815260200182805480156200050e57602002820191906000526020600020905b8160009054906101000a900473ffffffffffffffffffffffffffffffffffffffff1673ffffffffffffffffffffffffffffffffffffffff1681526020019060010190808311620004c3575b5050505050905090565b600281815481106200052657fe5b906000526020600020016000915054906101000a900473ffffffffffffffffffffffffffffffffffffffff1681565b60008686868686866040516200056b9062000821565b8080602001806020018060200180602001806020018773ffffffffffffffffffffffffffffffffffffffff1673ffffffffffffffffffffffffffffffffffffffff16815260200186810386528c818151815260200191508051906020019060200280838360005b83811015620005ef578082015181840152602081019050620005d2565b5050505090500186810385528b818151815260200191508051906020019060200280838360005b838110156200063357808201518184015260208101905062000616565b5050505090500186810384528a818151815260200191508051906020019080838360005b838110156200067457808201518184015260208101905062000657565b50505050905090810190601f168015620006a25780820380516001836020036101000a031916815260200191505b50868103835289818151815260200191508051906020019060200280838360005b83811015620006e0578082015181840152602081019050620006c3565b50505050905001868103825288818151815260200191508051906020019060200280838360005b838110156200072457808201518184015260208101905062000707565b505050509050019b505050505050505050505050604051809103906000f08015801562000755573d6000803e3d6000fd5b5090506002819080600181540180825580915050600190039060005260206000200160009091909190916101000a81548173ffffffffffffffffffffffffffffffffffffffff021916908373ffffffffffffffffffffffffffffffffffffffff160217905550600054600160008373ffffffffffffffffffffffffffffffffffffffff1673ffffffffffffffffffffffffffffffffffffffff16815260200190815260200160002081905550600080815480929190600101919050555050505050505050565b60005481565b614bef80620008308339019056fe60806040523480156200001157600080fd5b5060405162004bef38038062004bef833981810160405260c08110156200003757600080fd5b81019080805160405193929190846401000000008211156200005857600080fd5b838201915060208201858111156200006f57600080fd5b82518660208202830111640100000000821117156200008d57600080fd5b8083526020830192505050908051906020019060200280838360005b83811015620000c6578082015181840152602081019050620000a9565b5050505090500160405260200180516040519392919084640100000000821115620000f057600080fd5b838201915060208201858111156200010757600080fd5b82518660208202830111640100000000821117156200012557600080fd5b8083526020830192505050908051906020019060200280838360005b838110156200015e57808201518184015260208101905062000141565b50505050905001604052602001805160405193929190846401000000008211156200018857600080fd5b838201915060208201858111156200019f57600080fd5b8251866001820283011164010000000082111715620001bd57600080fd5b8083526020830192505050908051906020019080838360005b83811015620001f3578082015181840152602081019050620001d6565b50505050905090810190601f168015620002215780820380516001836020036101000a031916815260200191505b50604052602001805160405193929190846401000000008211156200024557600080fd5b838201915060208201858111156200025c57600080fd5b82518660208202830111640100000000821117156200027a57600080fd5b8083526020830192505050908051906020019060200280838360005b83811015620002b357808201518184015260208101905062000296565b5050505090500160405260200180516040519392919084640100000000821115620002dd57600080fd5b83820191506020820185811115620002f457600080fd5b82518660208202830111640100000000821117156200031257600080fd5b8083526020830192505050908051906020019060200280838360005b838110156200034b5780820151818401526020810190506200032e565b5050505090500160405260200180519060200190929190505050600186511015620003de576040517f08c379a00000000000000000000000000000000000000000000000000000000081526004018080602001828103825260208152602001807f4f7267616e697a657273206d757374206265206174206c65617374206f6e652181525060200191505060405180910390fd5b6001855110156200043b576040517f08c379a000000000000000000000000000000000000000000000000000000000815260040180806020018281038252602381526020018062004bcc6023913960400191505060405180910390fd5b600183511015620004b4576040517f08c379a000000000000000000000000000000000000000000000000000000000815260040180806020018281038252601f8152602001807f446561646c696e6573206d757374206265206174206c65617374206f6e65210081525060200191505060405180910390fd5b60018251018351146200052f576040517f08c379a000000000000000000000000000000000000000000000000000000000815260040180806020018281038252601f8152602001807f446561646c696e6573206d757374206265206174206c65617374206f6e65210081525060200191505060405180910390fd5b85600890805190602001906200054792919062000870565b5084600990805190602001906200056092919062000870565b5083600a908051906020019062000579929190620008ff565b5082600690805190602001906200059292919062000986565b5060008090505b60018451038110156200065557836001820181518110620005b657fe5b6020026020010151848281518110620005cb57fe5b60200260200101511062000647576040517f08c379a000000000000000000000000000000000000000000000000000000000815260040180806020018281038252601c8152602001807f446561646c696e65732073686f756c64206265206f726465726564210000000081525060200191505060405180910390fd5b808060010191505062000599565b506000600181905550600060028190555060008081905550600060048190555081600590805190602001906200068d92919062000986565b5060008090505b6001600580549050038110156200075c5760056001820181548110620006b657fe5b906000526020600020015460058281548110620006cf57fe5b9060005260206000200154106200074e576040517f08c379a000000000000000000000000000000000000000000000000000000000815260040180806020018281038252601d8152602001807f4d696c6573746f6e65732073686f756c64206265206f7264657265642100000081525060200191505060405180910390fd5b808060010191505062000694565b50600560038190555080600b60016101000a81548173ffffffffffffffffffffffffffffffffffffffff021916908373ffffffffffffffffffffffffffffffffffffffff1602179055507f47114a22588e53404a6e9e8510faa484d40bbfba13663d25fe323ddd9ab334ea600a6040518080602001828103825283818154600181600116156101000203166002900481526020019150805460018160011615610100020316600290048015620008565780601f106200082a5761010080835404028352916020019162000856565b820191906000526020600020905b8154815290600101906020018083116200083857829003601f168201915b50509250505060405180910390a150505050505062000a46565b828054828255906000526020600020908101928215620008ec579160200282015b82811115620008eb5782518260006101000a81548173ffffffffffffffffffffffffffffffffffffffff021916908373ffffffffffffffffffffffffffffffffffffffff1602179055509160200191906001019062000891565b5b509050620008fb9190620009d8565b5090565b828054600181600116156101000203166002900490600052602060002090601f016020900481019282601f106200094257805160ff191683800117855562000973565b8280016001018555821562000973579182015b828111156200097257825182559160200191906001019062000955565b5b50905062000982919062000a1e565b5090565b828054828255906000526020600020908101928215620009c5579160200282015b82811115620009c4578251825591602001919060010190620009a7565b5b509050620009d4919062000a1e565b5090565b62000a1b91905b8082111562000a1757600081816101000a81549073ffffffffffffffffffffffffffffffffffffffff021916905550600101620009df565b5090565b90565b62000a4391905b8082111562000a3f57600081600090555060010162000a25565b5090565b90565b6141768062000a566000396000f3fe60806040526004361061016a5760003560e01c80635f5b7990116100d1578063acd6e9001161008a578063c23efb9111610064578063c23efb911461081f578063d7557f1814610872578063efeb5e5814610889578063f7b78a5b1461090457610171565b8063acd6e90014610790578063b69ef8a8146107bb578063c19d93fb146107e657610171565b80635f5b7990146105da578063721ec69314610605578063913b722c1461063057806395086ed11461069c5780639c378d801461070b578063a4c8be1e1461071557610171565b806323beffc51161012357806323beffc51461031c578063252210e3146103735780633a9a4585146103d85780633ccfd60b146104905780634cfea615146104a75780635e02cb7d1461055f57610171565b806301339c21146101765780630328f25e1461018d57806306fdde03146101a45780630ed5d25e14610234578063187f9739146102a05780631fb12de31461030557610171565b3661017157005b600080fd5b34801561018257600080fd5b5061018b61092f565b005b34801561019957600080fd5b506101a2610db4565b005b3480156101b057600080fd5b506101b96111d9565b6040518080602001828103825283818151815260200191508051906020019080838360005b838110156101f95780820151818401526020810190506101de565b50505050905090810190601f1680156102265780820380516001836020036101000a031916815260200191505b509250505060405180910390f35b34801561024057600080fd5b50610249611277565b6040518080602001828103825283818151815260200191508051906020019060200280838360005b8381101561028c578082015181840152602081019050610271565b505050509050019250505060405180910390f35b3480156102ac57600080fd5b506102ef600480360360208110156102c357600080fd5b81019080803573ffffffffffffffffffffffffffffffffffffffff1690602001909291905050506113a1565b6040518082815260200191505060405180910390f35b34801561031157600080fd5b5061031a6113b9565b005b34801561032857600080fd5b50610331611789565b604051808273ffffffffffffffffffffffffffffffffffffffff1673ffffffffffffffffffffffffffffffffffffffff16815260200191505060405180910390f35b34801561037f57600080fd5b506103c26004803603602081101561039657600080fd5b81019080803573ffffffffffffffffffffffffffffffffffffffff1690602001909291905050506117af565b6040518082815260200191505060405180910390f35b61048e600480360360208110156103ee57600080fd5b810190808035906020019064010000000081111561040b57600080fd5b82018360208201111561041d57600080fd5b8035906020019184602083028401116401000000008311171561043f57600080fd5b919080806020026020016040519081016040528093929190818152602001838360200280828437600081840152601f19601f8201169050808301925050505050505091929192905050506117c7565b005b34801561049c57600080fd5b506104a5611cb0565b005b61055d600480360360208110156104bd57600080fd5b81019080803590602001906401000000008111156104da57600080fd5b8201836020820111156104ec57600080fd5b8035906020019184602083028401116401000000008311171561050e57600080fd5b919080806020026020016040519081016040528093929190818152602001838360200280828437600081840152601f19601f8201169050808301925050505050505091929192905050506122d9565b005b34801561056b57600080fd5b506105986004803603602081101561058257600080fd5b81019080803590602001909291905050506129ce565b604051808273ffffffffffffffffffffffffffffffffffffffff1673ffffffffffffffffffffffffffffffffffffffff16815260200191505060405180910390f35b3480156105e657600080fd5b506105ef612a0a565b6040518082815260200191505060405180910390f35b34801561061157600080fd5b5061061a612a10565b6040518082815260200191505060405180910390f35b34801561063c57600080fd5b50610645612a16565b6040518080602001828103825283818151815260200191508051906020019060200280838360005b8381101561068857808201518184015260208101905061066d565b505050509050019250505060405180910390f35b3480156106a857600080fd5b506106f5600480360360408110156106bf57600080fd5b81019080803573ffffffffffffffffffffffffffffffffffffffff16906020019092919080359060200190929190505050612b40565b6040518082815260200191505060405180910390f35b610713612b78565b005b34801561072157600080fd5b5061074e6004803603602081101561073857600080fd5b8101908080359060200190929190505050612df2565b604051808273ffffffffffffffffffffffffffffffffffffffff1673ffffffffffffffffffffffffffffffffffffffff16815260200191505060405180910390f35b34801561079c57600080fd5b506107a5612e2e565b6040518082815260200191505060405180910390f35b3480156107c757600080fd5b506107d0612e34565b6040518082815260200191505060405180910390f35b3480156107f257600080fd5b506107fb612e3a565b6040518082600481111561080b57fe5b60ff16815260200191505060405180910390f35b34801561082b57600080fd5b506108586004803603602081101561084257600080fd5b8101908080359060200190929190505050612e4d565b604051808215151515815260200191505060405180910390f35b34801561087e57600080fd5b50610887612e6d565b005b34801561089557600080fd5b506108c2600480360360208110156108ac57600080fd5b8101908080359060200190929190505050613293565b604051808273ffffffffffffffffffffffffffffffffffffffff1673ffffffffffffffffffffffffffffffffffffffff16815260200191505060405180910390f35b34801561091057600080fd5b506109196132cf565b6040518082815260200191505060405180910390f35b6001600481111561093c57fe5b600b60009054906101000a900460ff16600481111561095757fe5b14156109ae576040517f08c379a000000000000000000000000000000000000000000000000000000000815260040180806020018281038252602681526020018061411b6026913960400191505060405180910390fd5b600260048111156109bb57fe5b600b60009054906101000a900460ff1660048111156109d657fe5b1415610a2d576040517f08c379a00000000000000000000000000000000000000000000000000000000081526004018080602001828103825260268152602001806140306026913960400191505060405180910390fd5b600480811115610a3957fe5b600b60009054906101000a900460ff166004811115610a5457fe5b1415610aab576040517f08c379a0000000000000000000000000000000000000000000000000000000008152600401808060200182810382526029815260200180613e586029913960400191505060405180910390fd5b60036004811115610ab857fe5b600b60009054906101000a900460ff166004811115610ad357fe5b1415610b47576040517f08c379a00000000000000000000000000000000000000000000000000000000081526004018080602001828103825260208152602001807f5468697320636f6e747261637420686173206265656e2064697361626c65642181525060200191505060405180910390fd5b600660015481548110610b5657fe5b9060005260206000200154421115610c09576002600b60006101000a81548160ff02191690836004811115610b8757fe5b02179055507f4c2067c73ef83f6294bcea83b4ec57bdee89d23b121c536e7644d58656fb02ed60405160405180910390a16040517f08c379a0000000000000000000000000000000000000000000000000000000008152600401808060200182810382526021815260200180613f1a6021913960400191505060405180910390fd5b600080905060008090505b6008805490508160ff161015610ca45760088160ff1681548110610c3457fe5b9060005260206000200160009054906101000a900473ffffffffffffffffffffffffffffffffffffffff1673ffffffffffffffffffffffffffffffffffffffff163373ffffffffffffffffffffffffffffffffffffffff161415610c9757600191505b8080600101915050610c14565b506001151581151514610d02576040517f08c379a000000000000000000000000000000000000000000000000000000000815260040180806020018281038252602e815260200180613e2a602e913960400191505060405180910390fd5b60088054905060005414610d61576040517f08c379a000000000000000000000000000000000000000000000000000000000815260040180806020018281038252604f815260200180614056604f913960600191505060405180910390fd5b6001600b60006101000a81548160ff02191690836004811115610d8057fe5b02179055507f8091f3bf0000483f0b9b7eea79ef31bb28a3a2a0594d239cb2acfd4ccf4c31ac60405160405180910390a150565b600480811115610dc057fe5b600b60009054906101000a900460ff166004811115610ddb57fe5b14610e31576040517f08c379a000000000000000000000000000000000000000000000000000000000815260040180806020018281038252604d815260200180613f3b604d913960600191505060405180910390fd5b60008090506000600e60003373ffffffffffffffffffffffffffffffffffffffff1673ffffffffffffffffffffffffffffffffffffffff1681526020019081526020016000208054905014610fb05760008090505b600e60003373ffffffffffffffffffffffffffffffffffffffff1673ffffffffffffffffffffffffffffffffffffffff16815260200190815260200160002080549050811015610fae57610f3e600e60003373ffffffffffffffffffffffffffffffffffffffff1673ffffffffffffffffffffffffffffffffffffffff1681526020019081526020016000208281548110610f1d57fe5b906000526020600020906002020160000154836132d590919063ffffffff16565b91506000600e60003373ffffffffffffffffffffffffffffffffffffffff1673ffffffffffffffffffffffffffffffffffffffff1681526020019081526020016000208281548110610f8c57fe5b9060005260206000209060020201600001819055508080600101915050610e86565b505b6000600c60003373ffffffffffffffffffffffffffffffffffffffff1673ffffffffffffffffffffffffffffffffffffffff168152602001908152602001600020541461109157611049600c60003373ffffffffffffffffffffffffffffffffffffffff1673ffffffffffffffffffffffffffffffffffffffff16815260200190815260200160002054826132d590919063ffffffff16565b90506000600c60003373ffffffffffffffffffffffffffffffffffffffff1673ffffffffffffffffffffffffffffffffffffffff168152602001908152602001600020819055505b6110a68160025461335d90919063ffffffff16565b60028190555060003373ffffffffffffffffffffffffffffffffffffffff168260405180600001905060006040518083038185875af1925050503d806000811461110c576040519150601f19603f3d011682016040523d82523d6000602084013e611111565b606091505b505090506001151581151514611172576040517f08c379a0000000000000000000000000000000000000000000000000000000008152600401808060200182810382526026815260200180613fa96026913960400191505060405180910390fd5b7f68a4fb54bcedce606e857495eeb94eacecd6f5cf91eda2539bde705f2c8c03d533604051808273ffffffffffffffffffffffffffffffffffffffff1673ffffffffffffffffffffffffffffffffffffffff16815260200191505060405180910390a15050565b600a8054600181600116156101000203166002900480601f01602080910402602001604051908101604052809291908181526020018280546001816001161561010002031660029004801561126f5780601f106112445761010080835404028352916020019161126f565b820191906000526020600020905b81548152906001019060200180831161125257829003601f168201915b505050505081565b60606003600481111561128657fe5b600b60009054906101000a900460ff1660048111156112a157fe5b1415611315576040517f08c379a00000000000000000000000000000000000000000000000000000000081526004018080602001828103825260208152602001807f5468697320636f6e747261637420686173206265656e2064697361626c65642181525060200191505060405180910390fd5b600880548060200260200160405190810160405280929190818152602001828054801561139757602002820191906000526020600020905b8160009054906101000a900473ffffffffffffffffffffffffffffffffffffffff1673ffffffffffffffffffffffffffffffffffffffff168152602001906001019080831161134d575b5050505050905090565b600d6020528060005260406000206000915090505481565b600080905060008090505b6008805490508160ff1610156114545760088160ff16815481106113e457fe5b9060005260206000200160009054906101000a900473ffffffffffffffffffffffffffffffffffffffff1673ffffffffffffffffffffffffffffffffffffffff163373ffffffffffffffffffffffffffffffffffffffff16141561144757600191505b80806001019150506113c4565b5060011515811515146114b2576040517f08c379a000000000000000000000000000000000000000000000000000000000815260040180806020018281038252602e815260200180613e2a602e913960400191505060405180910390fd5b600060048111156114bf57fe5b600b60009054906101000a900460ff1660048111156114da57fe5b1415611531576040517f08c379a00000000000000000000000000000000000000000000000000000000081526004018080602001828103825260288152602001806140d26028913960400191505060405180910390fd5b6001600481111561153e57fe5b600b60009054906101000a900460ff16600481111561155957fe5b14156115cd576040517f08c379a000000000000000000000000000000000000000000000000000000000815260040180806020018281038252601e8152602001807f546869732063616d706169676e206973207374696c6c2061637469766521000081525060200191505060405180910390fd5b600360048111156115da57fe5b600b60009054906101000a900460ff1660048111156115f557fe5b1415611669576040517f08c379a00000000000000000000000000000000000000000000000000000000081526004018080602001828103825260208152602001807f5468697320636f6e747261637420686173206265656e2064697361626c65642181525060200191505060405180910390fd5b60066001548154811061167857fe5b90600052602060002001544211156116db576002600b60006101000a81548160ff021916908360048111156116a957fe5b02179055507f4c2067c73ef83f6294bcea83b4ec57bdee89d23b121c536e7644d58656fb02ed60405160405180910390a15b600060025414611736576040517f08c379a0000000000000000000000000000000000000000000000000000000008152600401808060200182810382526026815260200180613ece6026913960400191505060405180910390fd5b6003600b60006101000a81548160ff0219169083600481111561175557fe5b02179055507fee070805599232502bfd8759f2f7ef93dfa0621cb855674acdc27d66bf9540af60405160405180910390a150565b600b60019054906101000a900473ffffffffffffffffffffffffffffffffffffffff1681565b600c6020528060005260406000206000915090505481565b80600980549050815114611826576040517f08c379a0000000000000000000000000000000000000000000000000000000008152600401808060200182810382526035815260200180613fcf6035913960400191505060405180910390fd5b600080905060008090505b825181101561186f5761186083828151811061184957fe5b6020026020010151836132d590919063ffffffff16565b91508080600101915050611831565b50606481146118c9576040517f08c379a00000000000000000000000000000000000000000000000000000000081526004018080602001828103825260218152602001806140fa6021913960400191505060405180910390fd5b600060048111156118d657fe5b600b60009054906101000a900460ff1660048111156118f157fe5b1415611948576040517f08c379a00000000000000000000000000000000000000000000000000000000081526004018080602001828103825260288152602001806140d26028913960400191505060405180910390fd5b60048081111561195457fe5b600b60009054906101000a900460ff16600481111561196f57fe5b14156119c6576040517f08c379a0000000000000000000000000000000000000000000000000000000008152600401808060200182810382526029815260200180613e586029913960400191505060405180910390fd5b600260048111156119d357fe5b600b60009054906101000a900460ff1660048111156119ee57fe5b1415611a45576040517f08c379a0000000000000000000000000000000000000000000000000000000008152600401808060200182810382526021815260200180613f1a6021913960400191505060405180910390fd5b60036004811115611a5257fe5b600b60009054906101000a900460ff166004811115611a6d57fe5b1415611ae1576040517f08c379a00000000000000000000000000000000000000000000000000000000081526004018080602001828103825260208152602001807f5468697320636f6e747261637420686173206265656e2064697361626c65642181525060200191505060405180910390fd5b600660015481548110611af057fe5b9060005260206000200154421115611ba3576002600b60006101000a81548160ff02191690836004811115611b2157fe5b02179055507f4c2067c73ef83f6294bcea83b4ec57bdee89d23b121c536e7644d58656fb02ed60405160405180910390a16040517f08c379a0000000000000000000000000000000000000000000000000000000008152600401808060200182810382526021815260200180613f1a6021913960400191505060405180910390fd5b60003411611bfc576040517f08c379a0000000000000000000000000000000000000000000000000000000008152600401808060200182810382526022815260200180613eac6022913960400191505060405180910390fd5b611c05836133a7565b600e60003373ffffffffffffffffffffffffffffffffffffffff1673ffffffffffffffffffffffffffffffffffffffff1681526020019081526020016000206040518060400160405280348152602001858152509080600181540180825580915050600190039060005260206000209060020201600090919091909150600082015181600001556020820151816001019080519060200190611ca8929190613d86565b505050505050565b60006004811115611cbd57fe5b600b60009054906101000a900460ff166004811115611cd857fe5b1415611d2f576040517f08c379a00000000000000000000000000000000000000000000000000000000081526004018080602001828103825260288152602001806140d26028913960400191505060405180910390fd5b600480811115611d3b57fe5b600b60009054906101000a900460ff166004811115611d5657fe5b1415611dad576040517f08c379a0000000000000000000000000000000000000000000000000000000008152600401808060200182810382526029815260200180613e586029913960400191505060405180910390fd5b60016004811115611dba57fe5b600b60009054906101000a900460ff166004811115611dd557fe5b1415611e49576040517f08c379a000000000000000000000000000000000000000000000000000000000815260040180806020018281038252601e8152602001807f546869732063616d706169676e206973207374696c6c2061637469766521000081525060200191505060405180910390fd5b60036004811115611e5657fe5b600b60009054906101000a900460ff166004811115611e7157fe5b1415611ee5576040517f08c379a00000000000000000000000000000000000000000000000000000000081526004018080602001828103825260208152602001807f5468697320636f6e747261637420686173206265656e2064697361626c65642181525060200191505060405180910390fd5b600660015481548110611ef457fe5b9060005260206000200154421115611f57576002600b60006101000a81548160ff02191690836004811115611f2557fe5b02179055507f4c2067c73ef83f6294bcea83b4ec57bdee89d23b121c536e7644d58656fb02ed60405160405180910390a15b33600080905060008090505b6009805490508160ff161015611ff35760098160ff1681548110611f8357fe5b9060005260206000200160009054906101000a900473ffffffffffffffffffffffffffffffffffffffff1673ffffffffffffffffffffffffffffffffffffffff168373ffffffffffffffffffffffffffffffffffffffff161415611fe657600191505b8080600101915050611f63565b506001151581151514612051576040517f08c379a0000000000000000000000000000000000000000000000000000000008152600401808060200182810382526031815260200180613df96031913960400191505060405180910390fd5b6000600d60003373ffffffffffffffffffffffffffffffffffffffff1673ffffffffffffffffffffffffffffffffffffffff1681526020019081526020016000205411612106576040517f08c379a00000000000000000000000000000000000000000000000000000000081526004018080602001828103825260198152602001807f52652d656e7472616e637920636865636b206661696c6564210000000000000081525060200191505060405180910390fd5b6000600d60003373ffffffffffffffffffffffffffffffffffffffff1673ffffffffffffffffffffffffffffffffffffffff16815260200190815260200160002054905061215f8160025461335d90919063ffffffff16565b6002819055506000600d60003373ffffffffffffffffffffffffffffffffffffffff1673ffffffffffffffffffffffffffffffffffffffff1681526020019081526020016000208190555060003373ffffffffffffffffffffffffffffffffffffffff168260405180600001905060006040518083038185875af1925050503d806000811461220a576040519150601f19603f3d011682016040523d82523d6000602084013e61220f565b606091505b505090506001151581151514612270576040517f08c379a0000000000000000000000000000000000000000000000000000000008152600401808060200182810382526026815260200180613ef46026913960400191505060405180910390fd5b7fbfe64a9d7bc870b06df206ea0a273a82692a7d9b4d9063679a9cb6ec11b75b8833604051808273ffffffffffffffffffffffffffffffffffffffff1673ffffffffffffffffffffffffffffffffffffffff16815260200191505060405180910390a150505050565b80600980549050815114612338576040517f08c379a0000000000000000000000000000000000000000000000000000000008152600401808060200182810382526035815260200180613fcf6035913960400191505060405180910390fd5b600080905060008090505b82518110156123815761237283828151811061235b57fe5b6020026020010151836132d590919063ffffffff16565b91508080600101915050612343565b50606481146123db576040517f08c379a00000000000000000000000000000000000000000000000000000000081526004018080602001828103825260218152602001806140fa6021913960400191505060405180910390fd5b600080905060008090505b6008805490508160ff1610156124765760088160ff168154811061240657fe5b9060005260206000200160009054906101000a900473ffffffffffffffffffffffffffffffffffffffff1673ffffffffffffffffffffffffffffffffffffffff163373ffffffffffffffffffffffffffffffffffffffff16141561246957600191505b80806001019150506123e6565b5060011515811515146124d4576040517f08c379a000000000000000000000000000000000000000000000000000000000815260040180806020018281038252602e815260200180613e2a602e913960400191505060405180910390fd5b600160048111156124e157fe5b600b60009054906101000a900460ff1660048111156124fc57fe5b1415612553576040517f08c379a000000000000000000000000000000000000000000000000000000000815260040180806020018281038252602681526020018061411b6026913960400191505060405180910390fd5b6002600481111561256057fe5b600b60009054906101000a900460ff16600481111561257b57fe5b14156125d2576040517f08c379a00000000000000000000000000000000000000000000000000000000081526004018080602001828103825260268152602001806140306026913960400191505060405180910390fd5b6004808111156125de57fe5b600b60009054906101000a900460ff1660048111156125f957fe5b1415612650576040517f08c379a0000000000000000000000000000000000000000000000000000000008152600401808060200182810382526029815260200180613e586029913960400191505060405180910390fd5b6003600481111561265d57fe5b600b60009054906101000a900460ff16600481111561267857fe5b14156126ec576040517f08c379a00000000000000000000000000000000000000000000000000000000081526004018080602001828103825260208152602001807f5468697320636f6e747261637420686173206265656e2064697361626c65642181525060200191505060405180910390fd5b6006600154815481106126fb57fe5b90600052602060002001544211156127ae576002600b60006101000a81548160ff0219169083600481111561272c57fe5b02179055507f4c2067c73ef83f6294bcea83b4ec57bdee89d23b121c536e7644d58656fb02ed60405160405180910390a16040517f08c379a0000000000000000000000000000000000000000000000000000000008152600401808060200182810382526021815260200180613f1a6021913960400191505060405180910390fd5b60003411612807576040517f08c379a000000000000000000000000000000000000000000000000000000000815260040180806020018281038252602c815260200180614004602c913960400191505060405180910390fd5b6000600e60003373ffffffffffffffffffffffffffffffffffffffff1673ffffffffffffffffffffffffffffffffffffffff16815260200190815260200160002080549050141561290e57600e60003373ffffffffffffffffffffffffffffffffffffffff1673ffffffffffffffffffffffffffffffffffffffff16815260200190815260200160002060405180604001604052803481526020018681525090806001815401808255809150506001900390600052602060002090600202016000909190919091506000820151816000015560208201518160010190805190602001906128f5929190613d86565b505050600080815480929190600101919050555061295f565b6040517f08c379a000000000000000000000000000000000000000000000000000000000815260040180806020018281038252602b815260200180613e81602b913960400191505060405180910390fd5b612968846133a7565b60088054905060005414156129c8576001600b60006101000a81548160ff0219169083600481111561299657fe5b02179055507f8091f3bf0000483f0b9b7eea79ef31bb28a3a2a0594d239cb2acfd4ccf4c31ac60405160405180910390a15b50505050565b600781815481106129db57fe5b906000526020600020016000915054906101000a900473ffffffffffffffffffffffffffffffffffffffff1681565b60035481565b60015481565b606060036004811115612a2557fe5b600b60009054906101000a900460ff166004811115612a4057fe5b1415612ab4576040517f08c379a00000000000000000000000000000000000000000000000000000000081526004018080602001828103825260208152602001807f5468697320636f6e747261637420686173206265656e2064697361626c65642181525060200191505060405180910390fd5b6009805480602002602001604051908101604052809291908181526020018280548015612b3657602002820191906000526020600020905b8160009054906101000a900473ffffffffffffffffffffffffffffffffffffffff1673ffffffffffffffffffffffffffffffffffffffff1681526020019060010190808311612aec575b5050505050905090565b600e6020528160005260406000208181548110612b5957fe5b9060005260206000209060020201600091509150508060000154905081565b60003411612bd1576040517f08c379a000000000000000000000000000000000000000000000000000000000815260040180806020018281038252602d8152602001806140a5602d913960400191505060405180910390fd5b34600c60003373ffffffffffffffffffffffffffffffffffffffff1673ffffffffffffffffffffffffffffffffffffffff168152602001908152602001600020819055506007339080600181540180825580915050600190039060005260206000200160009091909190916101000a81548173ffffffffffffffffffffffffffffffffffffffff021916908373ffffffffffffffffffffffffffffffffffffffff16021790555060046000815480929190600101919050555060008090505b600980549050811015612d4b57612d3d612cb86009805490503461369090919063ffffffff16565b600d600060098581548110612cc957fe5b9060005260206000200160009054906101000a900473ffffffffffffffffffffffffffffffffffffffff1673ffffffffffffffffffffffffffffffffffffffff1673ffffffffffffffffffffffffffffffffffffffff168152602001908152602001600020546132d590919063ffffffff16565b508080600101915050612c90565b50612d61346002546132d590919063ffffffff16565b6002819055507f615b028bff09acdf82d928266161203b6cba1e6b1116721f24ebd805ecf3359060405160405180910390a16003546004541115612df0576004600b60006101000a81548160ff02191690836004811115612dbe57fe5b02179055507f303bdd2c1e0ebb8891c31034b279b031645a9ec60d9eaea1578dbf99baf3542260405160405180910390a15b565b60088181548110612dff57fe5b906000526020600020016000915054906101000a900473ffffffffffffffffffffffffffffffffffffffff1681565b60005481565b60025481565b600b60009054906101000a900460ff1681565b600f6020528060005260406000206000915054906101000a900460ff1681565b60006004811115612e7a57fe5b600b60009054906101000a900460ff166004811115612e9557fe5b1415612eec576040517f08c379a00000000000000000000000000000000000000000000000000000000081526004018080602001828103825260288152602001806140d26028913960400191505060405180910390fd5b600480811115612ef857fe5b600b60009054906101000a900460ff166004811115612f1357fe5b1415612f6a576040517f08c379a0000000000000000000000000000000000000000000000000000000008152600401808060200182810382526029815260200180613e586029913960400191505060405180910390fd5b60026004811115612f7757fe5b600b60009054906101000a900460ff166004811115612f9257fe5b1415612fe9576040517f08c379a0000000000000000000000000000000000000000000000000000000008152600401808060200182810382526021815260200180613f1a6021913960400191505060405180910390fd5b60036004811115612ff657fe5b600b60009054906101000a900460ff16600481111561301157fe5b1415613085576040517f08c379a00000000000000000000000000000000000000000000000000000000081526004018080602001828103825260208152602001807f5468697320636f6e747261637420686173206265656e2064697361626c65642181525060200191505060405180910390fd5b60066001548154811061309457fe5b9060005260206000200154421115613147576002600b60006101000a81548160ff021916908360048111156130c557fe5b02179055507f4c2067c73ef83f6294bcea83b4ec57bdee89d23b121c536e7644d58656fb02ed60405160405180910390a16040517f08c379a0000000000000000000000000000000000000000000000000000000008152600401808060200182810382526021815260200180613f1a6021913960400191505060405180910390fd5b600080905060008090505b6008805490508160ff1610156131e25760088160ff168154811061317257fe5b9060005260206000200160009054906101000a900473ffffffffffffffffffffffffffffffffffffffff1673ffffffffffffffffffffffffffffffffffffffff163373ffffffffffffffffffffffffffffffffffffffff1614156131d557600191505b8080600101915050613152565b506001151581151514613240576040517f08c379a000000000000000000000000000000000000000000000000000000000815260040180806020018281038252602e815260200180613e2a602e913960400191505060405180910390fd5b6002600b60006101000a81548160ff0219169083600481111561325f57fe5b02179055507f4c2067c73ef83f6294bcea83b4ec57bdee89d23b121c536e7644d58656fb02ed60405160405180910390a150565b600981815481106132a057fe5b906000526020600020016000915054906101000a900473ffffffffffffffffffffffffffffffffffffffff1681565b60045481565b600080828401905083811015613353576040517f08c379a000000000000000000000000000000000000000000000000000000000815260040180806020018281038252601b8152602001807f536166654d6174683a206164646974696f6e206f766572666c6f77000000000081525060200191505060405180910390fd5b8091505092915050565b600061339f83836040518060400160405280601e81526020017f536166654d6174683a207375627472616374696f6e206f766572666c6f7700008152506136da565b905092915050565b80600980549050815114613406576040517f08c379a0000000000000000000000000000000000000000000000000000000008152600401808060200182810382526035815260200180613fcf6035913960400191505060405180910390fd5b600080905060008090505b825181101561344f5761344083828151811061342957fe5b6020026020010151836132d590919063ffffffff16565b91508080600101915050613411565b50606481146134a9576040517f08c379a00000000000000000000000000000000000000000000000000000000081526004018080602001828103825260218152602001806140fa6021913960400191505060405180910390fd5b60008090505b6009805490508110156136045761357d6134f860646134ea8785815181106134d357fe5b60200260200101513461379a90919063ffffffff16565b61369090919063ffffffff16565b600d60006009858154811061350957fe5b9060005260206000200160009054906101000a900473ffffffffffffffffffffffffffffffffffffffff1673ffffffffffffffffffffffffffffffffffffffff1673ffffffffffffffffffffffffffffffffffffffff168152602001908152602001600020546132d590919063ffffffff16565b600d60006009848154811061358e57fe5b9060005260206000200160009054906101000a900473ffffffffffffffffffffffffffffffffffffffff1673ffffffffffffffffffffffffffffffffffffffff1673ffffffffffffffffffffffffffffffffffffffff1681526020019081526020016000208190555080806001019150506134af565b5061361a346002546132d590919063ffffffff16565b600281905550613628613820565b7f27665861eb32d53011ae20b935219e6ce36e9d9c9ed85363d7ed2572153a29d033604051808273ffffffffffffffffffffffffffffffffffffffff1673ffffffffffffffffffffffffffffffffffffffff16815260200191505060405180910390a1505050565b60006136d283836040518060400160405280601a81526020017f536166654d6174683a206469766973696f6e206279207a65726f000000000000815250613cc0565b905092915050565b6000838311158290613787576040517f08c379a00000000000000000000000000000000000000000000000000000000081526004018080602001828103825283818151815260200191508051906020019080838360005b8381101561374c578082015181840152602081019050613731565b50505050905090810190601f1680156137795780820380516001836020036101000a031916815260200191505b509250505060405180910390fd5b5060008385039050809150509392505050565b6000808314156137ad576000905061381a565b60008284029050828482816137be57fe5b0414613815576040517f08c379a0000000000000000000000000000000000000000000000000000000008152600401808060200182810382526021815260200180613f886021913960400191505060405180910390fd5b809150505b92915050565b600080905060008090505b6005805490508110156139945760011515600f60006005848154811061384d57fe5b9060005260206000200154815260200190815260200160002060009054906101000a900460ff161515141561388157613987565b6002546005828154811061389157fe5b906000526020600020015411613981576001600f6000600584815481106138b457fe5b9060005260206000200154815260200190815260200160002060006101000a81548160ff0219169083151502179055506001600081548092919060010191905055507fb75b8cc45d0190fcfdfea3f013fee2c849f768cbfdbdc5e784e8b2c7399c7d996005828154811061392457fe5b906000526020600020015433604051808381526020018273ffffffffffffffffffffffffffffffffffffffff1673ffffffffffffffffffffffffffffffffffffffff1681526020019250505060405180910390a160019150613986565b613994565b5b808060010191505061382b565b508015613cbd576000600b60019054906101000a900473ffffffffffffffffffffffffffffffffffffffff1673ffffffffffffffffffffffffffffffffffffffff166348d37a586040518163ffffffff1660e01b8152600401602060405180830381600087803b158015613a0757600080fd5b505af1158015613a1b573d6000803e3d6000fd5b505050506040513d6020811015613a3157600080fd5b810190808051906020019092919050505090506000613a5e6009805490508361369090919063ffffffff16565b905060008090505b600980549050811015613b8357613afc82600d600060098581548110613a8857fe5b9060005260206000200160009054906101000a900473ffffffffffffffffffffffffffffffffffffffff1673ffffffffffffffffffffffffffffffffffffffff1673ffffffffffffffffffffffffffffffffffffffff168152602001908152602001600020546132d590919063ffffffff16565b600d600060098481548110613b0d57fe5b9060005260206000200160009054906101000a900473ffffffffffffffffffffffffffffffffffffffff1673ffffffffffffffffffffffffffffffffffffffff1673ffffffffffffffffffffffffffffffffffffffff168152602001908152602001600020819055508080600101915050613a66565b506000613b9e6009805490508361379a90919063ffffffff16565b9050613bb5816002546132d590919063ffffffff16565b60028190555060606001604051908082528060200260200182016040528015613bed5781602001602082028036833780820191505090505b509050600e6000600b60019054906101000a900473ffffffffffffffffffffffffffffffffffffffff1673ffffffffffffffffffffffffffffffffffffffff1673ffffffffffffffffffffffffffffffffffffffff1681526020019081526020016000206040518060400160405280848152602001838152509080600181540180825580915050600190039060005260206000209060020201600090919091909150600082015181600001556020820151816001019080519060200190613cb5929190613d86565b505050505050505b50565b60008083118290613d6c576040517f08c379a00000000000000000000000000000000000000000000000000000000081526004018080602001828103825283818151815260200191508051906020019080838360005b83811015613d31578082015181840152602081019050613d16565b50505050905090810190601f168015613d5e5780820380516001836020036101000a031916815260200191505b509250505060405180910390fd5b506000838581613d7857fe5b049050809150509392505050565b828054828255906000526020600020908101928215613dc2579160200282015b82811115613dc1578251825591602001919060010190613da6565b5b509050613dcf9190613dd3565b5090565b613df591905b80821115613df1576000816000905550600101613dd9565b5090565b9056fe4f6e6c792062656e656669636961726965732063616e2061636365737320746869732066756e6374696f6e616c697479214f6e6c79206f7267616e697a6572732063616e2061636365737320746869732066756e6374696f6e616c69747921546869732063616d706169676e20686173206265656e20626c6f636b656420666f722066726175642154686520696e697469616c20646f6e6174696f6e2063616e206265206d616465206f6e6c79206f6e63652154686520646f6e6174656420616d6f756e742063616e6e6f74206265206e756c6c21536f6d652066756e647320686173206e6f74206265656e2077697468647261776e20796574214572726f72207768696c65207769746864726177696e672074686520646f6e6174696f6e7321546869732063616d706169676e20697320616c72656164792065787069726564214120646f6e6f722063616e2074616b65206261636b2074686520646f6e6174696f6e206f6e6c79206966207468652063616d706169676e20696620626c6f636b656420666f7220667261756421536166654d6174683a206d756c7469706c69636174696f6e206f766572666c6f774572726f72207768696c652074616b696e67206261636b2074686520646f6e6174696f6e7321596f75206861766520746f2073706563696679206120706172746974696f6e20666f7220656163682062656e65666963696172792154686520696e697469616c20646f6e6174696f6e206d7573742062652067726561746572207468616e203021596f752063616e6e6f74206d6f6469667920616e20657870697265642063616d706169676e2143616e6e6f74206c61756e6368207468652063616d706169676e206265666f726520616c6c206f7267616e697a65722068617665206d6164652074686520696e697469616c20646f6e6174696f6e21596f75206d75737420696e7665737420736f6d6520657468657220746f207265706f7274206120667261756421546869732063616d706169676e20686173206e6f74206265656e206c61756e6368656420796574215468652073756d206f6620706172746974696f6e73206973206e6f742031303025596f752063616e6e6f74206d6f646966792061206c61756e636865642063616d706169676e21a2646970667358221220df2100d9fe144056746d3b25886fea5a53e90f576650dee87c002accb300a2aa64736f6c6343000603003342656e65666963696172696573206d757374206265206174206c65617374206f6e6521a26469706673582212202a4ee97477d992e20e936c4a1fd05c54a91873a9da71bbe04d0941a56883a89b64736f6c63430006030033",
  "source": "pragma solidity >=0.5.6 <0.7.0;\n\nimport \"./Campaign.sol\";\n\n\ncontract CampaignFactory {\n\n    uint public nextIndex;\n    mapping (address => uint) indexes;\n    Campaign[] public instances;\n\n    constructor() public {\n        nextIndex = 0;\n    }\n\n    function create(address[] memory _organizers, address[] memory _beneficiaries, string memory _name, uint[] memory _deadlines, uint[] memory _milestones, ThirdPartyContract _tpContractAddress) public {\n\n\n        Campaign newInstance = new Campaign(_organizers, _beneficiaries, _name, _deadlines, _milestones, _tpContractAddress);\n        instances.push(newInstance);\n        indexes[address(newInstance)] = nextIndex;\n        nextIndex++;\n\n    }\n\n    function getDeployedCampaigns() public view returns(Campaign[] memory){\n        return instances;\n    }\n}\n",
  "sourcePath": "/Users/gianmarcosanti/Library/Mobile Documents/com~apple~CloudDocs/UNIPI/P2PBC/FinalProject/BitCollect/contracts/Factory.sol",
  "compiler": {
    "name": "solc",
    "version": "0.6.3+commit.8dda9521.Emscripten.clang"
  },
  "schemaVersion": "3.2.0",
  "updatedAt": "2020-06-16T16:17:00.717Z",
  "networkType": "ethereum",
  "devdoc": {
    "methods": {}
  },
  "userdoc": {
    "methods": {}
  }
}