{
  "contractName": "ThirdPartyContract",
  "abi": [
    {
      "inputs": [],
      "stateMutability": "nonpayable",
      "type": "constructor"
    },
    {
      "anonymous": false,
      "inputs": [
        {
          "indexed": false,
          "internalType": "address",
          "name": "campaign",
          "type": "address"
        },
        {
          "indexed": false,
          "internalType": "uint256",
          "name": "amount",
          "type": "uint256"
        }
      ],
      "name": "AwardWithdrawn",
      "type": "event"
    },
    {
      "anonymous": false,
      "inputs": [
        {
          "indexed": true,
          "internalType": "address",
          "name": "previousOwner",
          "type": "address"
        },
        {
          "indexed": true,
          "internalType": "address",
          "name": "newOwner",
          "type": "address"
        }
      ],
      "name": "OwnershipTransferred",
      "type": "event"
    },
    {
      "inputs": [
        {
          "internalType": "uint256",
          "name": "",
          "type": "uint256"
        }
      ],
      "name": "campaigns",
      "outputs": [
        {
          "internalType": "address",
          "name": "",
          "type": "address"
        }
      ],
      "stateMutability": "view",
      "type": "function",
      "constant": true
    },
    {
      "inputs": [],
      "name": "owner",
      "outputs": [
        {
          "internalType": "address",
          "name": "",
          "type": "address"
        }
      ],
      "stateMutability": "view",
      "type": "function",
      "constant": true
    },
    {
      "inputs": [],
      "name": "renounceOwnership",
      "outputs": [],
      "stateMutability": "nonpayable",
      "type": "function"
    },
    {
      "inputs": [
        {
          "internalType": "address",
          "name": "",
          "type": "address"
        },
        {
          "internalType": "uint256",
          "name": "",
          "type": "uint256"
        }
      ],
      "name": "rewardLedger",
      "outputs": [
        {
          "internalType": "uint256",
          "name": "milestone",
          "type": "uint256"
        },
        {
          "internalType": "uint256",
          "name": "reward",
          "type": "uint256"
        },
        {
          "internalType": "bool",
          "name": "withdrawn",
          "type": "bool"
        }
      ],
      "stateMutability": "view",
      "type": "function",
      "constant": true
    },
    {
      "inputs": [
        {
          "internalType": "address",
          "name": "newOwner",
          "type": "address"
        }
      ],
      "name": "transferOwnership",
      "outputs": [],
      "stateMutability": "nonpayable",
      "type": "function"
    },
    {
      "stateMutability": "payable",
      "type": "receive",
      "payable": true
    },
    {
      "inputs": [
        {
          "internalType": "address",
          "name": "_campaign",
          "type": "address"
        },
        {
          "internalType": "uint256[]",
          "name": "_milestones",
          "type": "uint256[]"
        },
        {
          "internalType": "uint256[]",
          "name": "_rewards",
          "type": "uint256[]"
        }
      ],
      "name": "addRewards",
      "outputs": [],
      "stateMutability": "payable",
      "type": "function",
      "payable": true
    },
    {
      "inputs": [],
      "name": "withdrawPrize",
      "outputs": [
        {
          "internalType": "uint256",
          "name": "",
          "type": "uint256"
        }
      ],
      "stateMutability": "nonpayable",
      "type": "function"
    },
    {
      "inputs": [
        {
          "internalType": "contract Campaign",
          "name": "_campaign",
          "type": "address"
        }
      ],
      "name": "takeBackReward",
      "outputs": [],
      "stateMutability": "nonpayable",
      "type": "function"
    }
  ],
  "bytecode": "0x608060405234801561001057600080fd5b5060006100216100c460201b60201c565b9050806000806101000a81548173ffffffffffffffffffffffffffffffffffffffff021916908373ffffffffffffffffffffffffffffffffffffffff1602179055508073ffffffffffffffffffffffffffffffffffffffff16600073ffffffffffffffffffffffffffffffffffffffff167f8be0079c531659141344cd1fd0a4f28419497f9722a3daafe3b4186f6b6457e060405160405180910390a3506100cc565b600033905090565b611393806100db6000396000f3fe60806040526004361061007f5760003560e01c80638da5cb5b1161004e5780638da5cb5b14610199578063e4f822c3146101f0578063eca979201461035c578063f2fde38b146103dd57610086565b8063141961bc1461008b57806348d37a581461010657806352776f5914610131578063715018a61461018257610086565b3661008657005b600080fd5b34801561009757600080fd5b506100c4600480360360208110156100ae57600080fd5b810190808035906020019092919050505061042e565b604051808273ffffffffffffffffffffffffffffffffffffffff1673ffffffffffffffffffffffffffffffffffffffff16815260200191505060405180910390f35b34801561011257600080fd5b5061011b61046a565b6040518082815260200191505060405180910390f35b34801561013d57600080fd5b506101806004803603602081101561015457600080fd5b81019080803573ffffffffffffffffffffffffffffffffffffffff16906020019092919050505061089c565b005b34801561018e57600080fd5b506101976109c8565b005b3480156101a557600080fd5b506101ae610b50565b604051808273ffffffffffffffffffffffffffffffffffffffff1673ffffffffffffffffffffffffffffffffffffffff16815260200191505060405180910390f35b61035a6004803603606081101561020657600080fd5b81019080803573ffffffffffffffffffffffffffffffffffffffff1690602001909291908035906020019064010000000081111561024357600080fd5b82018360208201111561025557600080fd5b8035906020019184602083028401116401000000008311171561027757600080fd5b919080806020026020016040519081016040528093929190818152602001838360200280828437600081840152601f19601f820116905080830192505050505050509192919290803590602001906401000000008111156102d757600080fd5b8201836020820111156102e957600080fd5b8035906020019184602083028401116401000000008311171561030b57600080fd5b919080806020026020016040519081016040528093929190818152602001838360200280828437600081840152601f19601f820116905080830192505050505050509192919290505050610b79565b005b34801561036857600080fd5b506103b56004803603604081101561037f57600080fd5b81019080803573ffffffffffffffffffffffffffffffffffffffff16906020019092919080359060200190929190505050610fc4565b6040518084815260200183815260200182151515158152602001935050505060405180910390f35b3480156103e957600080fd5b5061042c6004803603602081101561040057600080fd5b81019080803573ffffffffffffffffffffffffffffffffffffffff169060200190929190505050611015565b005b6001818154811061043b57fe5b906000526020600020016000915054906101000a900473ffffffffffffffffffffffffffffffffffffffff1681565b600080600260003373ffffffffffffffffffffffffffffffffffffffff1673ffffffffffffffffffffffffffffffffffffffff1681526020019081526020016000208054905011610506576040517f08c379a000000000000000000000000000000000000000000000000000000000815260040180806020018281038252602b8152602001806112d9602b913960400191505060405180910390fd5b600080905060008090505b600260003373ffffffffffffffffffffffffffffffffffffffff1673ffffffffffffffffffffffffffffffffffffffff168152602001908152602001600020805490508110156107455760001515600260003373ffffffffffffffffffffffffffffffffffffffff1673ffffffffffffffffffffffffffffffffffffffff16815260200190815260200160002082815481106105a957fe5b906000526020600020906003020160020160009054906101000a900460ff1615151415610738573373ffffffffffffffffffffffffffffffffffffffff1631600260003373ffffffffffffffffffffffffffffffffffffffff1673ffffffffffffffffffffffffffffffffffffffff168152602001908152602001600020828154811061063257fe5b90600052602060002090600302016000015411610732576106b7600260003373ffffffffffffffffffffffffffffffffffffffff1673ffffffffffffffffffffffffffffffffffffffff168152602001908152602001600020828154811061069657fe5b9060005260206000209060030201600101548361122290919063ffffffff16565b91506001600260003373ffffffffffffffffffffffffffffffffffffffff1673ffffffffffffffffffffffffffffffffffffffff168152602001908152602001600020828154811061070557fe5b906000526020600020906003020160020160006101000a81548160ff021916908315150217905550610737565b610745565b5b8080600101915050610511565b5060003373ffffffffffffffffffffffffffffffffffffffff168260405180600001905060006040518083038185875af1925050503d80600081146107a6576040519150601f19603f3d011682016040523d82523d6000602084013e6107ab565b606091505b505090506001151581151514610829576040517f08c379a00000000000000000000000000000000000000000000000000000000081526004018080602001828103825260208152602001807f4572726f72207768696c6520706179696e67207468652063616d706169676e2181525060200191505060405180910390fd5b7fba3ee90f21b875d727c4ffc617663be759d5b41cb118952ceef7f99f755ef1dc3383604051808373ffffffffffffffffffffffffffffffffffffffff1673ffffffffffffffffffffffffffffffffffffffff1681526020018281526020019250505060405180910390a1819250505090565b6108a46112aa565b73ffffffffffffffffffffffffffffffffffffffff166000809054906101000a900473ffffffffffffffffffffffffffffffffffffffff1673ffffffffffffffffffffffffffffffffffffffff1614610965576040517f08c379a00000000000000000000000000000000000000000000000000000000081526004018080602001828103825260208152602001807f4f776e61626c653a2063616c6c6572206973206e6f7420746865206f776e657281525060200191505060405180910390fd5b8073ffffffffffffffffffffffffffffffffffffffff16630328f25e6040518163ffffffff1660e01b8152600401600060405180830381600087803b1580156109ad57600080fd5b505af11580156109c1573d6000803e3d6000fd5b5050505050565b6109d06112aa565b73ffffffffffffffffffffffffffffffffffffffff166000809054906101000a900473ffffffffffffffffffffffffffffffffffffffff1673ffffffffffffffffffffffffffffffffffffffff1614610a91576040517f08c379a00000000000000000000000000000000000000000000000000000000081526004018080602001828103825260208152602001807f4f776e61626c653a2063616c6c6572206973206e6f7420746865206f776e657281525060200191505060405180910390fd5b600073ffffffffffffffffffffffffffffffffffffffff166000809054906101000a900473ffffffffffffffffffffffffffffffffffffffff1673ffffffffffffffffffffffffffffffffffffffff167f8be0079c531659141344cd1fd0a4f28419497f9722a3daafe3b4186f6b6457e060405160405180910390a360008060006101000a81548173ffffffffffffffffffffffffffffffffffffffff021916908373ffffffffffffffffffffffffffffffffffffffff160217905550565b60008060009054906101000a900473ffffffffffffffffffffffffffffffffffffffff16905090565b610b816112aa565b73ffffffffffffffffffffffffffffffffffffffff166000809054906101000a900473ffffffffffffffffffffffffffffffffffffffff1673ffffffffffffffffffffffffffffffffffffffff1614610c42576040517f08c379a00000000000000000000000000000000000000000000000000000000081526004018080602001828103825260208152602001807f4f776e61626c653a2063616c6c6572206973206e6f7420746865206f776e657281525060200191505060405180910390fd5b8060008090505b6001825103811015610d0057816001820181518110610c6457fe5b6020026020010151828281518110610c7857fe5b602002602001015110610cf3576040517f08c379a00000000000000000000000000000000000000000000000000000000081526004018080602001828103825260178152602001807f446174612073686f756c64206265206f7264657265642100000000000000000081525060200191505060405180910390fd5b8080600101915050610c49565b508260008090505b6001825103811015610dbf57816001820181518110610d2357fe5b6020026020010151828281518110610d3757fe5b602002602001015110610db2576040517f08c379a00000000000000000000000000000000000000000000000000000000081526004018080602001828103825260178152602001807f446174612073686f756c64206265206f7264657265642100000000000000000081525060200191505060405180910390fd5b8080600101915050610d08565b508251845114610e1a576040517f08c379a000000000000000000000000000000000000000000000000000000000815260040180806020018281038252602d815260200180611331602d913960400191505060405180910390fd5b600080905060008090505b8451811015610e6357610e54858281518110610e3d57fe5b60200260200101518361122290919063ffffffff16565b91508080600101915050610e25565b5080341015610ebd576040517f08c379a000000000000000000000000000000000000000000000000000000000815260040180806020018281038252602d815260200180611304602d913960400191505060405180910390fd5b60008090505b8551811015610fbb57600260008873ffffffffffffffffffffffffffffffffffffffff1673ffffffffffffffffffffffffffffffffffffffff1681526020019081526020016000206040518060600160405280888481518110610f2257fe5b60200260200101518152602001878481518110610f3b57fe5b60200260200101518152602001600015158152509080600181540180825580915050600190039060005260206000209060030201600090919091909150600082015181600001556020820151816001015560408201518160020160006101000a81548160ff02191690831515021790555050508080600101915050610ec3565b50505050505050565b60026020528160005260406000208181548110610fdd57fe5b9060005260206000209060030201600091509150508060000154908060010154908060020160009054906101000a900460ff16905083565b61101d6112aa565b73ffffffffffffffffffffffffffffffffffffffff166000809054906101000a900473ffffffffffffffffffffffffffffffffffffffff1673ffffffffffffffffffffffffffffffffffffffff16146110de576040517f08c379a00000000000000000000000000000000000000000000000000000000081526004018080602001828103825260208152602001807f4f776e61626c653a2063616c6c6572206973206e6f7420746865206f776e657281525060200191505060405180910390fd5b600073ffffffffffffffffffffffffffffffffffffffff168173ffffffffffffffffffffffffffffffffffffffff161415611164576040517f08c379a00000000000000000000000000000000000000000000000000000000081526004018080602001828103825260268152602001806112b36026913960400191505060405180910390fd5b8073ffffffffffffffffffffffffffffffffffffffff166000809054906101000a900473ffffffffffffffffffffffffffffffffffffffff1673ffffffffffffffffffffffffffffffffffffffff167f8be0079c531659141344cd1fd0a4f28419497f9722a3daafe3b4186f6b6457e060405160405180910390a3806000806101000a81548173ffffffffffffffffffffffffffffffffffffffff021916908373ffffffffffffffffffffffffffffffffffffffff16021790555050565b6000808284019050838110156112a0576040517f08c379a000000000000000000000000000000000000000000000000000000000815260040180806020018281038252601b8152602001807f536166654d6174683a206164646974696f6e206f766572666c6f77000000000081525060200191505060405180910390fd5b8091505092915050565b60003390509056fe4f776e61626c653a206e6577206f776e657220697320746865207a65726f20616464726573735468657265206973206e6f207072697a6520666f72207468652063757272656e742063616d706169676e21596f75206d7573742066756e642074686520636f6e7472616374207769746820656e6f756768206574686572214d696c6573746f6e657320616e64207265776172647327206c656e677468206d75737420626520657175616c21a26469706673582212203d9d44a7fa0ed99fea1f118c47d7c34c84a819ad92df0aab5faa06102e1d396464736f6c63430006030033",
  "source": "pragma solidity >=0.6.0 <0.7.0;\n\nimport \"@openzeppelin/contracts/math/SafeMath.sol\";\nimport \"@openzeppelin/contracts/access/Ownable.sol\";\nimport \"./Campaign.sol\";\n\ncontract ThirdPartyContract is Ownable{\n\n    using SafeMath for uint256;\n\n    //events\n    event AwardWithdrawn(address campaign, uint amount);\n\n    //structs\n    struct Reward{\n        uint milestone;\n        uint reward;\n        bool withdrawn;\n    }\n    //fields\n    address[] public campaigns;\n    mapping (address => Reward[]) public rewardLedger;\n\n    constructor () public {}\n\n    //Modifiers\n    modifier ordered(uint[] memory data){\n        for(uint i=0; i < data.length - 1 ; i ++ ){\n            require(data[i] < data[i+1], \"Data should be ordered!\");\n        }\n        _;\n    }\n\n    modifier checkBeneficiary(){\n\n        require(rewardLedger[msg.sender].length > 0, \"There is no prize for the current campaign!\");\n        _;\n    }\n\n    //methods\n    function addRewards(address _campaign, uint[] memory _milestones, uint[] memory _rewards) public payable onlyOwner ordered(_rewards) ordered(_milestones) {\n\n        require(_milestones.length == _rewards.length, \"Milestones and rewards' length must be equal!\");\n\n        uint sum = 0;\n\n        for(uint i=0; i<_rewards.length; i++){\n            sum = sum.add(_rewards[i]);\n        }\n\n        require(msg.value >= sum, \"You must fund the contract with enough ether!\");\n\n        for(uint i=0; i<_milestones.length; i++){\n            rewardLedger[_campaign].push(Reward(_milestones[i], _rewards[i], false));\n        }\n\n    }\n\n    function withdrawPrize() public checkBeneficiary returns(uint){\n\n        uint prize = 0;\n\n        for(uint i=0; i<rewardLedger[msg.sender].length; i++){\n            if(rewardLedger[msg.sender][i].withdrawn == false ){\n                if(rewardLedger[msg.sender][i].milestone <= msg.sender.balance){\n                    prize = prize.add(rewardLedger[msg.sender][i].reward);\n                    rewardLedger[msg.sender][i].withdrawn = true;\n                }else{\n                    break;\n                }\n            }\n        }\n\n\n        (bool success, ) = msg.sender.call.value(prize)(\"\");\n        require(success == true, \"Error while paying the campaign!\");\n\n        emit AwardWithdrawn(msg.sender, prize);\n\n        return prize ;\n    }\n\n    function takeBackReward(Campaign _campaign) public onlyOwner {\n\n        _campaign.takeBackDonation();\n\n    }\n\n    receive() external payable {}\n\n}",
  "sourcePath": "/Users/gianmarcosanti/Library/Mobile Documents/com~apple~CloudDocs/UNIPI/P2PBC/FinalProject/BitCollect/contracts/ThirdParty.sol",
  "compiler": {
    "name": "solc",
    "version": "0.6.3+commit.8dda9521.Emscripten.clang"
  },
  "schemaVersion": "3.2.0",
  "updatedAt": "2020-06-16T16:17:00.725Z",
  "networkType": "ethereum",
  "devdoc": {
    "methods": {
      "owner()": {
        "details": "Returns the address of the current owner."
      },
      "renounceOwnership()": {
        "details": "Leaves the contract without owner. It will not be possible to call `onlyOwner` functions anymore. Can only be called by the current owner.     * NOTE: Renouncing ownership will leave the contract without an owner, thereby removing any functionality that is only available to the owner."
      },
      "transferOwnership(address)": {
        "details": "Transfers ownership of the contract to a new account (`newOwner`). Can only be called by the current owner."
      }
    }
  },
  "userdoc": {
    "methods": {}
  }
}